:10000000305000203D220100392201003922010038
:1000100000000000000000000000000000000000E0
:100020000000000000000000000000003922010074
:10003000000000000000000039220100C536000069
:1000400039220100ADFC0000990A0100D10C010029
:100050003922010039220100E12500005108010088
:1000600009130100191301002913010039130100BC
:1000700049130100591301003922010039220100FE
:1000800039220100092201001922010000000000AC
:10009000000000002922010025F3000039220100A0
:1000A00039220100392201003922010039220100E0
:1000B0000000000010B5064C2378002B07D1054B3B
:1000C000002B02D0044800E000BF0123237010BDC4
:1000D000E803002000000000A0CE0100084B10B58E
:1000E000002B03D00749084800E000BF0748036819
:1000F000002B00D110BD064B002BFBD09847F9E731
:1001000000000000EC030020A0CE0100A0CE010002
:1001100000000000F8B50500114E3000114CA0475A
:100120001148A0473000A0476B689A6859680F488B
:100130000F4FB8473000A0470E48B8473000A047DF
:100140002B689A68D9680C48B84768682A68936829
:10015000D26881684068094C2468A047F8BDC04651
:10016000F8B70100395F01000C94010024940100EC
:100170001D5E01002C940100349401001C09002034
:1001800010B5014B984710BDFD38000010B5014B6C
:10019000984710BDF1380000F0B5DE4600B588B0D4
:1001A00006901500012900D180E00DDD032900D162
:1001B00093E0052904D14C484C4CA0474C48A0473B
:1001C00008B004BC9346F0BD0029F9D11368002B98
:1001D0005FDB4548454CA0474648474FB847474B2B
:1001E0001B689B46464E474B320047494748484D9F
:1001F000A8475B46454A47494748A84759464748A4
:10020000B847404B320046494648A8473D4B32006C
:1002100045494648A84733003A4A45494548A84712
:100220005B4601930096374B384A43494348A847F9
:100230004248434EB047434D2A00079001003F48D3
:10024000414B98472848A047079A3C493F48B84740
:100250002548A0473048B04702002F493C48B847DE
:100260002148A0472F493B48B8471F48A0472F497E
:100270003948B847002305930493039302930193ED
:10028000254B00932B002B4A01210698334CA047A5
:1002900096E71548154B9847314D29003148164BC4
:1002A000984729000698304B984789E71378002B28
:1002B00008D101222D4B1A700B480C4CA0472C483A
:1002C000A0477DE70022294B1A700748074B984743
:1002D00029782848084B984772E70348034CA04701
:1002E0002548A0476CE7C046F8B70100395F010018
:1002F0000C970100A49401001D5E0100F01A00207B
:10030000C01B0020E41C0020C09401000404002055
:1003100041610100E0940100D01B00201495010010
:1003200028950100941C002050950100701B0020AE
:1003300078950100001D00208095010048040020F0
:10034000B1620100501C002009740000B09501004A
:10035000D8950100009601001C9601003539000077
:100360003C96010070960100093900004504002008
:10037000A8960100D89601002097010010B588B01A
:100380000F2300930A33019301AB184A69461848BA
:10039000184CA04702AC2000174B9847174BA3609E
:1003A00080239B00E360164A22616361ED3BFF3BC3
:1003B000A38021001348144B9847011E0EDB1349FC
:1003C0001048134B9847011E0CDB124B98471249FB
:1003D0001248134B9847002008B010BD1148124B2B
:1003E0009847FEE71148104B9847FEE7E41C0020B1
:1003F000C01B002031730000C53800001C05002020
:100400001C070020E40400200D38000099010000C2
:10041000E1380000B1E10000810100008D01000021
:10042000F5E100003C9401001D5E010070940100A4
:1004300010B501000348044B9847044B187801237A
:10044000584010BDE4040020093900004504002094
:1004500010B582B013000024019400940A0001003A
:100460000248034CA047002002B010BDE404002065
:10047000CD39000010B5054B1960054B0022010075
:100480000448054CA047002010BDC0461C090020B0
:1004900015010000E4040020093A000010B53423DF
:1004A000054AD35C002B01D1002010BD00211000B3
:1004B000024B9847F8E7C046E40400202D3A0000BC
:1004C000F0B5CE46474680B583B004001500994686
:1004D00025222549254B984724344B46002B32DDF5
:1004E0000027234B984609E06A6922492000204BE7
:1004F0009847241801373C35B94524D02A001E49B5
:100500002000C0472418AB6B012B04D0022B13D062
:10051000002BEED1E8E76E6964213000174B984755
:10052000019164213000164B98470200019B154948
:1005300020000F4EB047DCE72A0018321249200095
:100540000B4B9847D5E7601E0D221049074B984783
:1005500020000B300E4A0F49054B9847002003B08E
:100560000CBC90469946F0BD3C970100875C0100A9
:10057000416101006C97010064970100093B010093
:100580003D390100709701007C97010080970100C0
:1005900090970100AC970100F8B516001D000023EC
:1005A0002B60124B9847041E07D1114B984701004E
:1005B0001048114B98470920F8BD1049104FB84713
:1005C00010492000B8471049B847071E08D00E4907
:1005D00030000E4B98477B6973612B6801332B60A9
:1005E00020000B4B98470020E6E7C046514C000026
:1005F000754B0000B49701001D5E0100D497010007
:10060000614C0000DC97010000000020A1620100A5
:10061000814B0000002070470B4B5B881A0A0020BA
:10062000032A00D07047FC321A42FBD1064BDB880C
:10063000042BF7D1044B054A9A60054A1A6104223B
:100640009A810130EEE7C046241F00202C090020CB
:10065000110700000122014B1A7070472009002089
:1006600010B582B0044B00934023044A00210220BD
:10067000034CA04702B010BDBD0600007009002069
:10068000311C000010B50023074A1370074A13708D
:100690000122074B1A70074B9847002800D110BD64
:1006A000054B9847FBE7C046280900202409002095
:1006B00020090020610600001DA2000010B50028DE
:1006C00003D1402902D0034B984710BD0248034B89
:1006D0009847F8E7610600007009002025A2000095
:1006E00010B5014B984710BD21A2000010B5034B77
:1006F000034A04490448054CA04710BD19060000F0
:10070000280000202409002028090020B907000043
:1007100010B5044B9B89042B00D010BD0248034B3D
:100720009847FAE7241F00202C09002081A200002E
:1007300070B582B00500194B1878002801D102B0BD
:1007400070BDEFF3108472B6BFF35F8F0022144BBD
:100750001A70144E403200213000134B984740224B
:1007600029003000114B9847114B00934023320071
:10077000002181200F4DA84701235840074B1870D6
:10078000002C05D10122064B1A70BFF35F8F62B6B1
:10079000024B187801235840D1E7C04620090020B9
:1007A0001402002030090020BD5C0100875C0100BC
:1007B00055060000311C000070B5050014003B4ACE
:1007C000127850B2002805DB602422400020202A45
:1007D0004FD070BD6020024003D1344840780628D5
:1007E0000DD00020202AF4D1304A5278022A34D089
:1007F000032A38D00020012AEBD19847E9E72C4B97
:1008000098470300827A0020212AE2D1274A5288A1
:10081000120A212A13D0D97B00209142D9D1234A30
:100820009460197C09331B7A1B020B43D088191C76
:100830009BB2834200D9011C91810120C9E71B4A68
:100840001900093191605B7AD088191C9BB28342F0
:1008500000D9011C91810120BBE7144B9D6001224E
:100860009A810120B5E7114B996001229A810120FC
:10087000AFE70E4A52780A2A06D00B2A0AD0002087
:10088000092AA6D19847A4E7084B5B881B0A2B705E
:1008900001209EE7054BDB880020002B00D098E765
:1008A000024B5B880B70013093E7C046241F002089
:1008B000510A000010B5114B1B681A689478D37860
:1008C0001B022343D2180378C018904210D24378F9
:1008D000042B0FD08B420AD00378C018904205D267
:1008E0004378042B08D08B42F6D100E0002010BDE5
:1008F0000020FCE70020FAE70020F8E7BC09002010
:1009000010B5034B5B887F201840024B984710BD01
:10091000241F0020011E000070B5194B1B78002217
:10092000002B29D0174B1B681B681C79844223D9E4
:10093000154A13609A78DC78240214431C19A342E8
:100940001CD20025012607E00F4A13600FE01A7839
:100950009B183500A3420CD25A78042AF7D19A7812
:100960008242F4D1DA788A42F1D1002DECD1012211
:1009700002E0054A13600022100070BD0022FBE770
:10098000B8090020BC090020C0090020F0B5C64607
:1009900000B504000021134B9847051E03D1280021
:1009A00004BC9046F0BD104B1B685B68A200D35896
:1009B0009846DB689847010020000A4B9847051EBF
:1009C000EDD00A4B1C680A4E0A4F05212000B047A3
:1009D000041E02D08078B847F7E743465B68984723
:1009E000DDE7C04619090000BC090020C00900204D
:1009F000B508000049190000F8B505000F4B9847ED
:100A0000002819D00E4B1C680E4E0F4F05212000F8
:100A1000B047041E09D00379427912021A43C17803
:100A20008078B8470028F1D106E0084B1B685B6866
:100A3000AD00EB581B689847F8BDC0461909000087
:100A4000C0090020B5080000A1190000BC09002061
:100A5000014B18687047C046C009002010B5014B13
:100A6000984710BDB11E000070B50E4B1B78002BCF
:100A700011D00D4B1B681B681B79002B0BD0002479
:100A80000A4E094D2000B0470134E4B22B681B68C0
:100A90001B79A342F6D80022024B1A700132044B94
:100AA0001A8070BDB8090020BC0900208D09000023
:100AB000B009002070B50E4B1B78002B17D00D4BE2
:100AC0001B681A681279002A11D00024094D06E02B
:100AD0000134E4B22B681A681279A24207D95B6824
:100AE000A200D3581B69002BF2D09847F0E770BDE5
:100AF000B8090020BC090020F8B5AB4B00229A8150
:100B00001A615A611B785AB2002A13DB60221A421A
:100B100000D1D7E0A44B1A781F231340012B00D13A
:100B200074E1A14B1A781F2313400020022B00D13F
:100B3000CAE1F8BD9C4AD2880020002AF9D0602181
:100B40001942E7D11F210B4008D19749497806295E
:100B500023D0082900D184E0002917D0012B00D12F
:100B600087E0022BD6D1904B5B780020002B00D081
:100B7000A6E1022AD5D18C4B18798C4B98478C4B27
:100B80001880022118008B4B9847FCE0022AC8D13C
:100B900002318948874B9847F5E0834B5A88130AFE
:100BA000022B23D0D9B202290FD9032B34D00F2B1B
:100BB00000D082E1814B98680028B2D08378C17858
:100BC000090219437B4B984707E0012B00D074E1E1
:100BD0007A4B18680178774B9847734BDA889B8972
:100BE000934200D8CFE0704B9A81CCE0D2B2734BE5
:100BF0001B685B7C934200D893E7704B5B68D20024
:100C0000D0588378C178090219436A4B9847664BDC
:100C10009B6802225A70E0E7FF231A40012A1DD088
:100C2000002A16D0022A00D074E7654C1720654AC6
:100C300002320023E15C118001330232D9B28142D9
:100C4000F8D3410002315F48017089B2594B98478F
:100C5000C3E704215C48574B9847BEE75B4C19201B
:100C6000E5E7012A00D05CE701215948514B98473C
:100C700089E04D4949780A2900D072E7012A00D05D
:100C8000C4E0534B1B78002B00D1BFE0464B1C79CE
:100C9000504B1D682B681B79A34200D8B6E0002199
:100CA00020004D4B9847002800D133E76B68A40023
:100CB000E358DB689847494B1870012118003D4BF9
:100CC000984760E01F2213405FD1374A5278032AC9
:100CD00000D1F4E0D1B203293BD9052A4BD0092A2F
:100CE00053D1314BDB88002B00D01AE73C4B98479F
:100CF000002800D10EE72C4B9A78304B1B685B7CA8
:100D00009A4200DD06E7374B9847274B9B78304ADD
:100D10001370002B37D0344A94466344DB00274AD3
:100D20005268D3182B4A13601B681B79002B2AD0FA
:100D300000242E4D160000212000A847002800D1D5
:100D4000E8E60134E4B233681B681B79A342F2D8A9
:100D500019E0012A19D1144BDB88002B00D0E0E602
:100D6000114B5B88012B00D0DBE6134A138802216C
:100D70008B43138007E00C4BDB88002B00D0D0E6C0
:100D80001B4A094B1A610120D3E6012B32D0022BFA
:100D900000D0BFE6044B5B78012B6DD0032B00D154
:100DA00079E000208CE0C046241F0020A91A000032
:100DB000B2090020211E0000B009002060000020C0
:100DC0000C010020B8000020EC000020F000002002
:100DD000B8090020BC09002019090000B40900204E
:100DE000111E0000690A0000FFFFFF1FF909000043
:100DF00001090000484A52780B2AC8D1464BDB88CB
:100E0000002B03D1454B1B78002B27D1434B1B787C
:100E10000020002B00D18CE63F4B1C79404B1D6815
:100E20002B681B79A34200D883E6002120003D4BAC
:100E30009847002800D174E66B68A200D558EB688B
:100E4000984701002000374B9847002800D168E6FA
:100E5000AB689847002800D06BE662E62E4B1D7900
:100E60005C882800304B9847002800D152E6E1B258
:100E700028002E4B984723E0274BDB88002B00D01F
:100E80004FE6254B5B88002B00D04AE6224B1879B1
:100E9000274B984714E0204BDB88002B00D040E61E
:100EA0001D4B5B88002B00D03BE61B4C2079214B6F
:100EB00098472079204B984702E0002000E000206E
:100EC000002800D035E625E6144B1B78002B00D116
:100ED0002FE6134B1B681A681279002A1AD00025D6
:100EE000104E0F4F5B68AA00D458E3689847010082
:100EF0002800B047002800D11BE6A36898470028C7
:100F000000D016E60135EDB23B681A681279AA42A4
:100F1000E8D80EE600200CE6241F0020B8090020C7
:100F2000BC090020190900008D090000F909000022
:100F3000ED1B00000D190000BD1A000010B51F4A7E
:100F4000936904210B4393611D4B1A8B2021FF31C0
:100F50000A431A831A7D0523D20701D4180010BD55
:100F600003781B02C022920013404178C901FF227E
:100F70000A401343817849001E220A401343C27875
:100F800092048021C9020A40134302791204C0214D
:100F900089020A4013430A4A536093685B035B0F5C
:100FA000084908249C400C8093684B8043780B715F
:100FB000138BDB05DB0F1B01D0E7C04600040040AC
:100FC00000400041C409002030B50400234A1088C5
:100FD000538843438B420BD280229201204BCB1883
:100FE000934205D91F4A18201F4BCB1893420FD8A4
:100FF0001E4B5D688022D2022A435A601A8B202041
:10100000FF3002431A831B7D1B38FF38DB0700D4F7
:1010100030BD452C1FD8A300154AD3589F46134B0B
:101020001B8B1020DB05F3D4890849000F4BD961D5
:1010300003E0890849000D4BD961A5200002044353
:101040000A4B1C80190001220B7D1342FCD0074B78
:101050005D600020DCE71720DAE7C046C409002005
:1010600000C07FFFFF1F00000000C0FF00400041E4
:10107000E4970100F8B5304B1C885B8863438342DA
:1010800007D22E4E18252E4BC318B34206D8012680
:1010900000E00026631E1825184201D02800F8BD84
:1010A000013D9442FAD3274B1B7D123DDB07F5D55A
:1010B000254C244B1C801D0001242B7D2342FCD099
:1010C000204C238B2025FF352B432383002A2CD053
:1010D000012305009D430023541EA44609E0CF18B8
:1010E0007F783F023C432C8002339BB202359A4208
:1010F00004D9CC5C6345F2DBA4B2F4E70E4B1B7958
:101100000025002BCAD13F2AC8D8002E06D10022C4
:10111000010004200D4B98470500BFE700220100A5
:101120001C200A4B98470500B8E7034B1B790025A4
:10113000002BEAD0B2E7C046C4090020FF1F000020
:101140000000C0FF0040004144A5FFFFC90F0000A0
:1011500070B51C4B1C885B886343834205D21A4ED2
:1011600018251A4BC318B34203D8631E182518421A
:1011700001D0280070BD013D9442FAD3144B1B7D71
:10118000123DDB07F5D5124C238B2025FF352B4371
:101190002383002A14D0012398430023561E04E021
:1011A00002339BB202309A4208D90488A4B2CC54CC
:1011B000B342F5DACD18240A6C70F1E70025D8E7C0
:1011C0000025D6E7C4090020FF1F00000000C0FF73
:1011D0000040004110B5194A138852885A43824290
:1011E00007D2174C182217494118A14207D80121EC
:1011F00000E000219B00013B1822184201D01000A2
:1012000010BD114B1B7D133ADB07F8D50E4B1A8B23
:101210002024FF3422431A8380084000D86100292B
:1012200009D10A4A084B1A80190001220B7D13428A
:10123000FCD00022E3E7064AF4E7C046C4090020D8
:10124000FF1F00000000C0FF0040004102A5000099
:101250001AA50000154B1A8B2021FF310A431A836F
:101260009B685903490F08228A40027043801B0D76
:1012700083810F4B1B885B065B0F072B10D0062268
:10128000D21A042393404360094B1B880722134062
:10129000072B08D00722D21A04239340836070479B
:1012A00000234360F0E700238360F8E7004000413B
:1012B0000040800010B582B001AB00221A700132EC
:1012C0005A709A70DA70224B1B7883423DD0002806
:1012D0001AD001AB1A5C1F4B9B5CFF2B00D1FEE7C1
:1012E000EFF3108372B6BFF35F8F00241A490C70BE
:1012F000184CA15C0131A154002B05D10122164BE1
:101300001A70BFF35F8F62B6114B1B78002B1AD097
:1013100001AAD25C0F4B9B5C002B00D1FEE7EFF3E0
:10132000108372B6BFF35F8F00240B490C70094C19
:10133000A15C0139A154002B05D10122064B1A7082
:10134000BFF35F8F62B6024B187002B010BDC0468B
:10135000240A0020341D0020140200200F23034023
:101360005B00C00918180238830018188000014B70
:1013700018187047D4090020F0B5D6464F464646A7
:10138000C0B589468D796BB2002B26DB28005E4BF9
:10139000984704000F272F40038A98464B461B8826
:1013A0009A46837C5B076AD4E36853441E00E3607B
:1013B000A3689E4200D874E0E360A37C01229343BB
:1013C000A3742368002B03D0E1682A00002098470B
:1013D0001CBC90469946A246F0BD28004A4B98474F
:1013E00004000F272F40038A98464B465E88C36847
:1013F0009C466644C66081688E4225D08D1BADB286
:10140000424B9D4206D91D0041461800404B98476B
:101410006D1AADB2A27C0023920707D54146280081
:101420003C4B984789B24B424B41DBB25B00A27CFC
:1014300002218A431343A374626892192B00390076
:101440003548364CA047C3E7837C9B070BD4837C8D
:101450000122934383740368002BB9D02A00310022
:1014600000209847B4E7837C022293438374426848
:101470009219002339002848284CA047A8E7436860
:10148000C268944663441E0041468068214B9847D9
:101490000A007B1E9B01224959183000214B9847B6
:1014A00082E74A469288524500D086E79E4200D1A4
:1014B00083E79B1B9DB2154B9D4216D91D004146EB
:1014C0001800134B98476B1A9BB2984514D9A37C0C
:1014D00004221343A3747A1E9201114BD21843467F
:1014E00039000D48104CA04772E741462800094BCF
:1014F00098476B1A9BB2E8E7626892193900064870
:10150000094CA04764E7C0465D130000FF1F0000C0
:10151000093B010035390100BC1D0020F924000001
:101520003C1D0020875C01004D25000010B5052200
:10153000054B1A70054C80212000054B984700216F
:101540002000044B984710BDD0090020BC1D00208E
:101550004D2400007324000070B5084C06212000C3
:10156000074DA84704212000A84702212000054B71
:1015700098470220044B984770BDC046BC1D002010
:101580008D1F00006D1F0000B512000070B5144BD8
:101590001B8B9B061DD41249D0221201CB6813402D
:1015A0009342FBD10F4C022120000F4B984704219E
:1015B00020000E4DA8470E4A062120000D4B9847EB
:1015C00006212000A84703200B4B98470B4B984758
:1015D00070BD034980225200CB681342FCD0E1E782
:1015E000000C0040BC1D00208D1F00006D1F00007E
:1015F00059150000491F0000B512000023A2000089
:1016000070B582B004001E4B984780232268937205
:1016100001AD28001B4B984700266E702900200062
:10162000194B984719492000194B9847194B02222A
:1016300000212000184DA847184B0022002120004F
:10164000A847174B012200212000A84702220021B1
:101650002000144DA847002200212000A8470122A5
:1016600000212000A84721680B890F4A1A408023D7
:10167000DB0013430B810D4B1E7002B070BDC046E2
:10168000690A000099210000A92100003C1F0020E8
:101690009D250000E9170000A91F0000ED1A0000B9
:1016A000ED160000F91F0000FFF3FFFFD009002036
:1016B00010B50322074B1A70074C08492000084B4D
:1016C0009847084B9A68002300212000064CA04749
:1016D00010BDC046D0090020BC1D00203C1F0020CA
:1016E0009D250000241F0020F924000010B58979F1
:1016F0004BB2002B06DB0E4B1B78022B0FD0032BBB
:1017000011D010BD0A4B1B78012B05D0042BF8D14A
:101710000848094B9847F4E7084B9847F1E704223B
:10172000034B1A70EDE70348034B9847E9E7C046BF
:10173000D0090020BC1D00204D240000B11600007F
:1017400070B5204B1B88204A9489E41AA4B2002C5F
:1017500018D11E4A11885B189BB213801A4AD2888E
:101760009A4223D01A4B1B78002B1FD1164B5B6972
:10177000002B23D09847002820D00022114B1A803C
:10178000114B9C89072C19D90022114B1A7008247F
:101790000C4D2B880C4A9268D218230000210D486A
:1017A0000D4EB0472B88E4182C8070BD04220B4BE3
:1017B0001A700B4907480B4B9847F6E70122044B78
:1017C0001A70E5E7CC090020241F0020CE09002074
:1017D000CA090020BC1D0020F9240000D009002007
:1017E0003C1F00209D25000010B50C002C4B1B78E1
:1017F000002B07D02B4B1B69002B00D098470022F1
:10180000274B1A702388082B02D0274B984710BD0E
:10181000244A264B1978117059785170D8780002F3
:10182000997809185180587900021979091891801E
:10183000D97909029B795B18D3801D4B9847002802
:1018400016D0184B1B787F2B15D8164BDB88002B36
:1018500022D00023174A1380174A13800122104B0D
:101860001A700823114A00211448154CA047CEE7EE
:101870000D4B9847CBE700230E4A13800E4A138086
:101880000222074B1A700823084A00210B480C4C0F
:10189000A0470C4B9847BAE70B4B9847B7E7C046B1
:1018A000D0090020241F00202D1500003C1F00201F
:1018B000F90A0000CE090020CC090020BC1D002040
:1018C0004D25000041170000B116000010B5014B76
:1018D000984710BDB50A000010B5074C0421200040
:1018E000064B984702212000054B98470120054BE5
:1018F0009847054B984710BDBC1D00208D1F000068
:101900006D1F0000B512000021A2000010B50400F8
:1019100001000A480A4B984720000A4B9847837CED
:10192000DB070AD5837C0122934383740368002B71
:1019300003D0C16822000120984710BDBC1D0020C3
:10194000ED2300005D13000070B582B0040001AD0E
:1019500028000D4B984720000C4B98472C70002313
:10196000EB700B4E290030000A4B98470F212140A5
:1019700000223000084B9847002221003000074B1E
:10198000984702B070BDC046992100000D190000B3
:10199000BC1D0020A9210000D11F0000C9200000AB
:1019A000F0B583B005000F00140001AE3000364BD7
:1019B00098473570082C13D8002201AB5A702800C4
:1019C000324B9847048203213940012938D002293B
:1019D00043D0002303293DD1042201ABDA7032E069
:1019E000102C03D8012201AB5A70E8E7202C03D851
:1019F000022201AB5A70E2E7402C03D8032201AB6C
:101A00005A70DCE7802C03D8042201AB5A70D6E769
:101A100080235B009C4203D8052201AB5A70CEE7BD
:101A200080239B009C4203D8062201AB5A70C6E774
:101A3000174A002394420DD8072201AB5A70BEE723
:101A4000022201ABDA7001A91248134B9847002318
:101A5000002806D0180003B0F0BD032201ABDA70F5
:101A6000F1E70F2129400B4C0C4B002220000C4EBB
:101A7000B0470022290020000A4EB0470122290069
:101A80002000B0470123E5E7992100005D13000025
:101A9000FF030000BC1D0020A921000079130000F5
:101AA000A91F0000F91F000010B501000148024BFA
:101AB000984710BDBC1D00202324000010B5040071
:101AC0000F2303400020022B00D910BD2100044841
:101AD000044B98472000044B98470120F5E7C04687
:101AE000BC1D00204D2400000D19000070B5344BC2
:101AF0001B78012B0AD0022B5FD0324B1B69002BC5
:101B000000D0984700222E4B1A7070BD0D882D4BC7
:101B10009B892D4A14886219934201DA1D1BADB2CC
:101B2000284B986800192A002849294B98476419BE
:101B3000A4B2254B1C80082D0AD0224B9C815B69E6
:101B4000002B02D09847002814D0224B9847DCE79E
:101B50001C4BDA88204B1B881B199A42EDDD194B70
:101B60009B89A3420CD00823184A00211B481C4C17
:101B7000A047CAE70522124B1A701A4B9847C4E7D0
:101B8000104B5B69002B0BD0984700280FD01249EF
:101B90000D4A0B8810881B180B8000231380E2E786
:101BA0000522074B1A7000200E4B9847ADE705221F
:101BB000034B1A700B4B9847A7E70B4B9847A4E7CA
:101BC000D0090020241F0020CC0900203C1F002049
:101BD000875C0100B1160000CE090020BC1D00206A
:101BE0004D250000BD1A00004117000070B504002B
:101BF0000F2303400020022B00D970BD2000094BA9
:101C00009847050021000848084B9847AB7C012005
:101C1000DB07F2D5AB7C01229343AB742B6898476A
:101C20000120EAE75D130000BC1D002073240000C2
:101C3000F0B585B005000391029201930F2606408E
:101C40000024022E02D9200005B0F0BD624B984757
:101C5000041E00D0B9E02800604B98470700EFF35E
:101C6000108172B6BFF35F8F00225D4B1A70837CC8
:101C7000DB0708D50029E6D10132594B1A70BFF3B2
:101C80005F8F62B6DFE7837C0122134383740029F0
:101C900005D10122524B1A70BFF35F8F62B6029BCF
:101CA0007B60019BBB600023FB600A9B3B600123C0
:101CB000039A13405A00BB7C02218B431343042236
:101CC0009343BB746BB2002B20DB019B002B6FD0C6
:101CD0009CB2444B9C425AD9398A1C001800424B92
:101CE0009847631A9AB23B8A9A4257D2BA7C042127
:101CF0000A43BA74721E92013C49521831003C48A2
:101D00003C4CA04744424441E4B29CE7019B002B79
:101D100027D09DB2334B9D4206D9398A1D00180049
:101D2000314B98476B1A9DB2BB7C9B0707D5398A0C
:101D30002800314B984789B24C424C41E4B2012013
:101D400020404000BC7C02239C430443BC742B0015
:101D5000029A31002648294CA04744424441E4B24B
:101D600071E7BB7C9B0705D5BB7C02229343BB7408
:101D70000025ECE7BB7C01229343BB740A9B002B3C
:101D800025D02A0000210020984701245BE7398AEA
:101D90002000194B9847631A9AB2A4E71300029ADD
:101DA00031001348134CA04744424441E4B24AE78F
:101DB000BB7C01229343BB740A9B002B09D02A00F1
:101DC00000210020984701243DE700243BE701243F
:101DD00039E7012437E7C046A91A00005D13000067
:101DE00014020020FF1F0000093B01003C1D0020E1
:101DF000BC1D00204D25000035390100F9240000EC
:101E0000024B1B688022104398727047BC1D002053
:101E1000024B1B68987A4006400E7047BC1D00209C
:101E2000014B986099817047241F002070B50320F2
:101E3000164B9847164C2268138901218B43138156
:101E4000144A03312000144EB047144A00212000E8
:101E5000B047134A01212000B047124A0221200056
:101E6000B04704212000104DA84700212000A847BA
:101E700001212000A84702212000A8470B4A062183
:101E80002000B04706212000A84770BDB512000011
:101E9000BC1D0020D9180000491F0000CD1800000B
:101EA000011600008D1500006D1F0000591500007F
:101EB00070B582B0EFF3108472B6BFF35F8F00226B
:101EC000194B1A7001AD2800184B98470323AB70CB
:101ED000174E2A008221C9053000164B9847300062
:101EE000154B9847154B1B8B9B0615D41349D022D5
:101EF0001201CB6813409342FBD10120104B98474D
:101F0000104B9847002C05D10122074B1A70BFF3E4
:101F10005F8F62B602B070BD084980225200CB6864
:101F20001342FCD0E9E7C04614020020A12B0000B8
:101F3000BC1D0020B12B0000CD250000000C00408E
:101F4000B51200002D1E000010B50B002E339B00B3
:101F50001A50AA2252004900835A034C095B0B43D2
:101F60008352002010BDC046109901004900064B65
:101F7000CB5A02689383AB214900425A1A4342521A
:101F80000268138300207047109901004900054B37
:101F9000CA5AAB214900435A9343435203689A8279
:101FA000002070471099010010B58C00A41834343B
:101FB000A4000419636040185930FF3003780349C6
:101FC0008A5C13430370002010BDC04620990100B5
:101FD00010B58B009B1834339B00C31800245C6041
:101FE00040185930FF30034B9A5C037893430370D9
:101FF000002010BD2099010070B50F230B40C418BC
:102000006134FF3425782F4EB65C35432570002AA5
:1020100029D1002B12D103250A24FF340668355537
:10202000032A09D149B2002944DB02685B01D318B5
:102030000A33FF3320221A70002070BD4CB2002CEE
:1020400008DB5C010568AC4664440A34FF340125B2
:102050002570E5E75C010568AC4664440A34FF344A
:1020600002252570DCE7012A1AD1002B05D1026870
:102070000C210A23FF33D154DEE749B2002907DBE4
:1020800002685B01D3180A33FF3304221A70D3E7C6
:1020900002685B01D3180A33FF3308221A70CBE7BA
:1020A000022ABDD102685B01D3180A33FF33102224
:1020B0001A70C1E702685B01D3180A33FF3340226C
:1020C0001A70B9E72099010070B50F230B40C418AE
:1020D0006134FF342F4DAE5C2578B5432570002A5E
:1020E00029D1002B12D103258424640006683555BC
:1020F000032A09D149B2002944DB02685B01D318E5
:102100000933FF3320221A70002070BD4CB2002C1E
:1021100008DB5C010568AC4664440934FF340125E2
:102120002570E5E75C010568AC4664440934FF347A
:1021300002252570DCE7012A1AD1002B05D102689F
:102140000C210933FF33D154DEE749B2002907DB04
:1021500002685B01D3180933FF3304221A70D3E7F6
:1021600002685B01D3180933FF3308221A70CBE7EA
:10217000022ABDD102685B01D3180933FF33102254
:102180001A70C1E702685B01D3180933FF3340229C
:102190001A70B9E72099010000230370437083701F
:1021A0000133C37070470000F0B50C780F23234053
:1021B00064B2CA78042A70D89200894DAA5897460A
:1021C000026808335B0100219954002282E05C011F
:1021D00002689446644480225200A55CE43A6D078C
:1021E00078D1E432A65C7025E43A2E4272D15F3D8C
:1021F000E432A5541A00083252010468A4182F359D
:10220000657100688218802010718A78002A1FD0BA
:102210005801744A12185468802000060443546020
:1022200054692043506107254C785A016D4B9B1827
:1022300058682C4024076C4E304020435860497841
:102240005A692940090732400A435A61002241E095
:102250005801644A121850684000400850605069A4
:10226000400040085061DEE7002C35DB5D0102686C
:102270009446654480225200AE5CE43A760729D148
:1022800080267600AA5D02273A43AA550268180004
:1022900008304001121840205071E20F4F785D0065
:1022A000AD182D014F4E7519686807243C4024076E
:1022B0004D4E3040204368608978002900D088E086
:1022C0005B009B181B01474AD3185A6852005208FA
:1022D0005A6000221000F0BD5D010268944665441A
:1022E00080225200AF5C7026E43A3742F2D1903639
:1022F000AA5D20273A43AA55026818000830400119
:10230000121880201071C8E7002C17DB5D010268ED
:102310009446654480225200AE5CE43A7607D9D1F7
:1023200080267600AA5D03273A43AA550268180062
:1023300008304001121840205071AEE75D0102687C
:102340009446654480225200AF5C7026E43A3742DE
:10235000C0D19036AA5D30273A43AA5502681800CA
:102360000830400112188020107196E7002C17DB0E
:102370005D0102689446654480225200AE5CE43AF6
:102380007607A7D180267600AA5D04273A43AA558E
:1023900002681800083040011218402050717CE794
:1023A0005D0102689446654480225200AF5C70264D
:1023B000E43A374200D08DE79036AA5D40273A4391
:1023C000AA550268180008304001121880201071C8
:1023D00063E7696880231B060B436B60002279E783
:1023E000FC980100441F0020FFFFFF8F0F230B40CC
:1023F00049B200290ADB08335B010268D218402188
:1024000051710268D3180122DA71704708335B01F9
:102410000268D218802111710268D3180222DA7181
:10242000F3E70F230B4049B2002907DB02680833AA
:102430005B01D3189879C006C00F70470268083353
:102440005B01D31898798006C00FF6E70F230B4085
:1024500049B2002906DB026808335B01D318102259
:102460005A717047026808335B01D31820225A71F1
:10247000F7E730B50F230B4049B200291DDB5901A6
:102480000268521883246400145DE40614D51025F4
:10249000822464001555026852180821FF31515CEE
:1024A000890609D5E43C0821FF31545402680833F9
:1024B0005B01D31801221A7130BD5901026852180C
:1024C00083246400145DA406F6D5202582246400CC
:1024D0001555026852180821FF31515C4906EBD5A9
:1024E000C43C0821FF315454026808335B01D318FF
:1024F00002221A71E0E7000030B50C0008346401D4
:102500000568645D6406640F1C25002C01D1280059
:1025100030BD4C010B4D2D192C002A616A690A4D02
:102520002A40626162699B049B0C920B92031343E5
:102530006361036808314901591880234B710025F4
:10254000E5E7C046441F0020FF3F00F030B50C0017
:10255000083464010568645D64071C25002C01D102
:10256000280030BD0B4C4D012A51621954689B0460
:102570001B09094D2C402343536053689B0B9B035D
:102580005360036808314901591840230B71002535
:10259000E6E7C046441F0020FF3F00F0094B1960EA
:1025A0005A6809491140802292020A435A605A68C7
:1025B000920B92035A600268402182235B00D1543F
:1025C00000207047441F0020FF3F00F0026813788E
:1025D00002210B43137002689378022BFCD07047E2
:1025E000F0B5DE4657464E464546E0B583B0C04B93
:1025F0001F683D682B78DB0914D12E8CB6B2002EF3
:1026000000D0A5E1AE8BB6B2AB235B00FB5AAA2289
:102610005200BD5A1D4035400024B64FB44B994678
:10262000984680E1288C80B2B34B984704001F285D
:1026300000D9D6E0030008335B01ED18ED79EDB267
:10264000AB0741D0AD4A0123834011689943116023
:10265000030008335B013A68944663440322DA714D
:102660003B18AE331B78DB072ED5A54B18703A68A4
:10267000030008335B019B5C9B079B0F012B00D180
:1026800081E042019F4B9B185A681201920C90B254
:102690009B494A805A689204920C8A805A689A49E7
:1026A0000A405A60002807D16201964B9B185B686C
:1026B0009B049B0C924A53808D4B1868A31C1B01F2
:1026C000C3185B688E4998476B070ED58B4A012368
:1026D000A340116899431160854B1B681B68220059
:1026E000083252019B180422DA712B0714D5834A51
:1026F0000123A3401168994311607D4B18682300A2
:1027000008335B010268944663440822DA710319B6
:10271000AE331B789B0747D4EB0614D5774A0123C9
:10272000A340116899431160714B18682300083366
:102730005B010268944663441022DA710319AE33D8
:102740001B785B073ED4AB0600D4B0E06B4A012394
:10275000A340116899431160654B18682300083342
:102760005B010268944663442022DA710319AE3398
:102770001B781B0700D49AE061490C7024010419EE
:10278000236B984793E042015E4B9B185A68920472
:10279000920C5B494A805A681201920C8A805A68EE
:1027A000920B92035A6087E755490C706201554BB2
:1027B0009B18DB891F2213404B702301C3189B6AAF
:1027C0009847A9E74E490C7062014E4B9B185B6815
:1027D0001B019B0C4B802301C318DB6A0021984727
:1027E000B1E7AC8BA4B2630705D50423AB83A13357
:1027F000FB5CDB0762D423070BD500223F4B1A603A
:102800003B4B18680823026893839D33C35C9B0786
:1028100058D4630608D5364B186840230268938362
:102820006533C35CDB0650D4A30608D5304B18686B
:102830002023026893838533C35C1B0748D4E306D7
:1028400008D52B4B18681023026893839533C35C1B
:102850005B0740D423060BD50022284B1A60244B7B
:1028600018688023026893832533C35C9B0635D4A4
:10287000E3050CD50022214B1A601D4B18688023FC
:102880005B00026893835B3BC35C5B0629D4A305B2
:102890000DD50022194B1A60154B186880239B0038
:1028A000026893835C3BFF3BC35C7F2B1CD803B067
:1028B0003CBC90469946A246AB46F0BD7B683800CA
:1028C000984798E783689847A3E743699847ABE739
:1028D00003699847B3E7C3689847BBE7836998479C
:1028E000C6E7C3699847D2E7036A9847DFE7C0465F
:1028F000280A002010990100CD3B0100380A002071
:102900003C0A0020441F0020FF3F00F023002E332C
:102910009B00424612689B589E4942461068984761
:102920000134072CC3D06300DB5B334203D04A463B
:102930001268126893832B42F2D0062CE6D1964B94
:102940001B891B09802252001340924A1360DDE765
:102950003C005934FF340023012294465F329146F3
:10296000503A92460D3A9346B8462F00B9E02A00F5
:102970003D00474690465B01ED180823FF33EB5CB2
:102980005B0616D540220823FF33EA54883BFF3B01
:1029900042461343814A937160230B4200D186E77C
:1029A000019B1B01FB18E0331B687C4938009847EA
:1029B0007DE70823FF33EB5C9B06EDD5202208233F
:1029C000FF33EA54754B42469A71E5E73D004746AE
:1029D000019A130008335B01ED181023EB71BB184B
:1029E0006133FF331B78DB0600D460E7100052012F
:1029F000694B9B185B689B049B0C68490B80030127
:102A0000FB18DC331B684046984750E72A003D001E
:102A1000474690465B01ED180823FF33EB5C9B07AC
:102A20001ED502220823FF33EA545C48883BFF3B53
:102A3000424613438371019B5A01574B9B18103335
:102A40005B689B049B0C43808B0700D12FE7019BA5
:102A50000D331B01FB185B6850493800984726E787
:102A60000823FF33EB5CDB07EED501220823FF339D
:102A7000EA544A4843468371019B5B01464AD21897
:102A800053689B049B0C038053681B019B0C838041
:102A9000DAE70822FF329A5C52076ED5042008223A
:102AA000FF329854019842013B4B9B189B7A9B073D
:102AB00005D5394B9B189A7A022082439A72374B7C
:102AC00042469A71019B08335B013A68944663441D
:102AD000DB79DB0751D5EAE601330134082B00D15D
:102AE000E5E6DDB2019332001A4161461142F3D0AE
:102AF0001A0008325201BA18D279D2B2217A1140A2
:102B0000207801404846104200D030E7504610423D
:102B100000D05BE75846104200D077E70C20104207
:102B2000DAD02A003D00474690465B01EB180822A8
:102B3000FF329A5C1207ACD504380822FF32985451
:102B400001984201144B9B189B7E9B0705D5124BA5
:102B50009B189A7E022082439A7680235B424246EB
:102B600013430E4A9371019B08335B013A68944604
:102B70006344DB799B0700D599E60C230B4200D117
:102B800095E6019B1B01FB18D8331B6803493800ED
:102B900098478CE62C0A0020441F0020300A0020B1
:102BA000002303700133437003228270C3707047A7
:102BB000F0B5CE46474680B583B004000D00160040
:102BC0000023674A1360674A106021606648826983
:102BD00001210A43826101AF7B70B970FB7006333B
:102BE00099463B7039001820604B984698474B46F1
:102BF0003B7039001920C047B3786A4613706946A4
:102C000004205B4B984704205A4B98472B780122AD
:102C100013432B70AB78DB07FCD4574B1B689B032B
:102C2000DB0E1F2B00D18FE02A8D9B0153490A40F8
:102C300013432B85504B1B685B02DB0E1F2B00D10F
:102C400084E02A8D1F218A4313432B854A4B1B683E
:102C50009B015B0F072B00D17AE02A8D1B034849AB
:102C60000A4013432B8532782978D2017F230B4009
:102C700013432B7071782B7801220A4092000421B3
:102C80008B4313432B703F4B6B62F378012B61D066
:102C9000002B06D1226813890C218B4304210B439E
:102CA00013818022520000213648374B9847231D5C
:102CB00021002431002204C38B42FCD12100A43125
:102CC00000221A605A609A60DA6010338B42F8D1A1
:102CD0000023A422A3540132A3542300A6332100CD
:102CE000AE3100221A701A7201339942FAD12300D0
:102CF000B8332100D431002204C38B42FCD121001F
:102D00005531FF3100221A605A609A60DA60103340
:102D10008B42F8D10023AA225200A3520232A352BE
:102D200023005933FF336134FF3400221A701A72C2
:102D30000133A342FAD14022144B1A60002003B0A1
:102D40000CBC90469946F0BD1A3B6DE7023B78E714
:102D5000043B82E72268138908318B431381A0E783
:102D6000380A0020280A0020000400404D210100FC
:102D700021200100B11F01001C6080003FF8FFFF0F
:102D8000FF8FFFFF441F0020BD5C010000E100E059
:102D9000F0B5DE4657464E464546E0B583B00700DF
:102DA000884601920024002918DD154B9A46154BE0
:102DB0009B460198D047002810D13E6DF368994694
:102DC0003B691D190198D84703004246290030008D
:102DD000C847002802DB2418A045EADCA0450CD136
:102DE000B96938005430084B9847002003B03CBC08
:102DF00090469946A246AB46F0BD01204042F5E719
:102E0000D536000009370000F536000010B5016521
:102E100000214162C1624163C16341644260036158
:102E2000029B8360039B4361049BC3600162017743
:102E3000C164012303605430014B984710BDC04664
:102E40001D370000F0B5DE4657464E464546E0B514
:102E500085B082460F009146040024344C2353442D
:102E6000984601235B42019356E02168BB687A686B
:102E70009E180A78002A4AD0B3424AD20131701E05
:102E800008E02F2A0FD101330A78002A3FD09E4252
:102E90003FD901311D782F2DF3D02B2A08D0232ABA
:102EA00013D09542EFD09E4233D1002A3DD030E07E
:102EB0005D1CAE4227D95A782F2A1FD00133834296
:102EC000E1D05A782F2AF9D1DDE7731EDBE7019BA9
:102ED000013307D0019805B03CBC90469946A24604
:102EE000AB46F0BD5346DB6C002BF3D003974A464C
:102EF000029202A8984700230193EBE70A78002A80
:102F000007D02B00C5E701330A78002A01D19E4281
:102F10000BD008344445DAD0A34621680029F8D004
:102F20003800084B984700289FD05B465B68002B11
:102F3000EFD003974A46029202A8984700230193D4
:102F4000E7E7C046B13F000010B582B004000020A2
:102F5000A369002B01D102B010BD20005430144BE6
:102F6000984700281DD0237F002B1DD16846114BA8
:102F70009847FA21890068460F4B9847A168206955
:102F80000E4B9847002809DD6A46010020000C4BD3
:102F900098470028DFD101232377DCE70120404256
:102FA000D9E701204042D6E701204042D3E7C0469E
:102FB000D53600001D370000E5360000993C0000C2
:102FC000912D0000F0B5DE464F464646C0B590B0A4
:102FD0000400056DAE68476907910800654B984786
:102FE0000300012239002800B0470500012800D065
:102FF000BDE007985F4B98470690042600277F2383
:103000009B46206D83689846069B01220CA9C04709
:1030100001280ED102AB28229B181B785A461A4071
:103020006A43BF18ED015BB2002B02DA013E002EAD
:10303000E7D16369581C39004F4B9847002F10DDCA
:10304000266DB3689946013063691D180798494B8E
:10305000984703003A0029003000C847B84200D022
:1030600085E063691D782D09052D51D00D2D6ED099
:103070000026032D6ED1E268049203930FAB0293F6
:103080000EAB019309AB00930DAB292202A98C462C
:10309000624408A92A206044384EB047002601281F
:1030A0005BD10CAE02AB1B7E3370320009A920004D
:1030B000334B98473378002B28D0012B04D0022BB8
:1030C00016D00126764248E00CAB9B880093002383
:1030D0000422A16820692B4EB0470100002912DDAF
:1030E000079A2000284B98470600431C32D134E051
:1030F0000CAB9B88009300230522A1682069214E18
:10310000B0470100EAE70126764226E0002621E0EA
:10311000E26800920CAA08A909A81C4EB047012831
:1031200002D0012676421BE00CAB1B8800930023E3
:103130000622A1682069134EB0470028F1DD079AE6
:1031400001002000104B9847061EEAD102E0002340
:103150002377002620000E4B9847002E00D12E002A
:10316000300010B01CBC90469946A346F0BD094DF6
:103170000026EFE709370000B13D0000A93C000040
:10318000452E0000E5400000912D0000413D00006B
:10319000492F0000FFFF000070B582B005000C0051
:1031A00068460A4B984721006846094B9847094CE6
:1031B000094E69462800A047431C04D06846B04722
:1031C0000028F6D0002002B070BDC0461D370000B8
:1031D000E5360000C52F0000D5360000F0B583B0FD
:1031E00001900E00009201246442084F084D00989F
:1031F000B847002806D100990198A8470400B042BA
:10320000F5D13400200003B0F0BDC046D536000033
:10321000C52F000030B59BB004000D00582228498E
:1032200002A8284B9847236A002B3FD118A8264BA9
:103230009847616818A8254B9847002D15D0298B11
:10324000A16120005430224B98472A00A1682069D0
:10325000204B984700282CDD18AA010020001E4BA7
:103260009847002803D01BB030BD02ADE7E718AA8D
:1032700002212000194B984702281DD16B46991D49
:10328000FF230B706B46D81D00230370E36862694F
:10329000134DA847012802D001204042E3E76B46C6
:1032A00098790028DFD101232362DCE70120404226
:1032B000D9E701204042D6E701204042D3E7C0468B
:1032C00024990100875C01001D370000E5360000ED
:1032D000F5360000C53A0000912D0000DD310000F8
:1032E0000D3C0000F0B591B004000F0005930023E1
:1032F0000C930D930A920B91036A002B61D00EA8D8
:10330000344B984761680EA8334B98472069A168F1
:103310002368324A934217D0013323609BB20AAA32
:1033200002920BAA01920122009200222C4EB04779
:10333000002849DD0EAA010020002A4B9847061EEE
:1033400004D0300011B0F0BD0123E6E70EAA092138
:103350002000254B9847092839D100230893013BC9
:103360000993E36801936369009309AB08AA0121FB
:103370000D3002ADAC4660441C4DA8473200012818
:103380000ED0636A002B10D023002C33012519685E
:1033900000290BD001350833052DF8D11600D0E7F0
:1033A000099A802AEDD11600CBE7350004223900B6
:1033B0000F48104B9847EB00E4186762059BA36227
:1033C000BFE701267642BCE701267642B9E701262F
:1033D0007642B6E71D370000E5360000FFFF00002B
:1033E0007D410000912D0000DD31000031420000E0
:1033F0007C9901001D5E0100F0B58FB0050014003E
:1034000000230A930B930991036A002B62D00CA846
:10341000364B984769680CA8354B98472378013B91
:10342000012B21D92378E2680692A268059209AAA5
:1034300002A9C1CAC1C1A288019262780092002289
:10344000A96828692B4EB047002846DD0CAA010068
:103450002800294B9847002804D12378012B0DD050
:10346000022B21D00FB0F0BD2B68244A934203D029
:1034700001332B60A380D5E70123FAE70CAA0421CE
:1034800028001F4B984704282AD16B69EA680092EC
:1034900022226A4408A91D3068441A4CA04701380A
:1034A000431E98414042DDE70CAA07212800144B37
:1034B0009847072817D16B69EA68009222226A446C
:1034C00008A91A3068440F4CA0470138431E9841A0
:1034D0004042C7E701204042C4E701204042C1E723
:1034E00001204042BEE701204042BBE71D370000FB
:1034F000E53600001D400000912D0000FFFF000098
:10350000DD310000413D000010B5040000202056D0
:10351000044B984701235B4223600022024B1A7040
:1035200010BDC0464DE60000480A002070B51600E8
:1035300000220D4B1A70B2B2007840B200230B4C3F
:10354000A04700280CD1084B1B78002B06D1084D52
:10355000054C0020A8472378002BFAD0300070BD1E
:1035600001267642FAE7C0464B0A002021E500001A
:10357000A9C50000F0B583B001911400002B00D163
:103580000A33224A1268002A13D0204B1D68A54234
:1035900039DB1F4E37681F49C919220001981E4B9D
:1035A00098472D1B194B1D603F193760200003B051
:1035B000F0BD0021194A1170007840B280225200FB
:1035C0001449174DA84700281AD1144B1B78002B1B
:1035D00006D1144F114D0020B8472B78002BFAD09C
:1035E000114B1868002805DD084B18600022084BB5
:1035F0001A60CAE70023054A1360054A1360D6E73C
:1036000001204042D3E701204042D0E7580B002080
:103610005C0B00204C0A0020875C01004A0A002055
:10362000B9E50000A9C50000500B002010B502004C
:103630000C00084B1B78002B0BD1074B18681100AE
:10364000064B9847002804D1054B1C600122014B12
:103650001A7010BD490A0020540B00208D62010031
:103660004C0B002030B5124BA824A4001D1902E019
:103670006033AB420BD0DC6D002CF9D0246A84425D
:10368000F6D106290CD0072906D0052900D030BD77
:103690000122084B1A70FAE70122074B1A70F6E76D
:1036A0000423D25E054B1A600122054B1A70EEE727
:1036B000600B0020480A00204B0A0020500B00201D
:1036C0004A0A0020024A1368013313607047C0465B
:1036D000440A00204068024B1B68C01AC00F7047A4
:1036E000440A0020024B1B68591841607047C046CD
:1036F000440A0020FA239B005943024B1B68C91857
:1037000041607047440A00204068034B1B68C01AA0
:10371000C343DB1718407047440A0020002343606E
:103720007047000001235B420360034B8360034B3F
:10373000C360034B03617047753500002D350000F1
:1037400009350000F0B587B0060015000193254C3F
:1037500000232370244B19600800244B98472378DA
:10376000002B06D1224F1F4C0020B8472378002B96
:10377000FAD0204B1A687260022302A90B802B0238
:103780001D490B40ADB22D0A1D4302AB5D80039273
:103790003368002B16DB3068431C1BD040B210226C
:1037A00002A9164B9847002819D10022144B1A7011
:1037B0000F4D1C000020A8472378002BFAD00020D2
:1037C00007B0F0BD6B461A79012102200D4B9847D6
:1037D0003060E0E70C4B984709204042F0E70920B1
:1037E0004042EDE7490A0020540B0020E9E60000C2
:1037F000A9C500004C0B002000FFFF0091E4000071
:10380000480A002009E200004DE60000F0B585B04E
:1038100006000D0000283DD000293ED00B69002B8A
:103820003ED08B68002B3ED08B88FA27BF005F43C9
:103830000400203420001F4B9847301D1822290017
:103840001D4B98471D4BDB6D002B1AD01B4BBC3317
:1038500001221968002915D001326033072AF8D1F6
:10386000F069002822D02B69EA680292AA680192C6
:103870006A6900923A002100114CA047002005B06F
:10388000F0BD00220D485300991849014118CE653A
:10389000F161E5E701204042F1E701204042EEE717
:1038A00001204042EBE701204042E8E7012040428E
:1038B000E5E7C04625370000875C0100600B00206B
:1038C0000D2E0000054B0380002383703C22828074
:1038D00083600361C36043617047C0465B070000BB
:1038E000002802D001600020704701204042FBE721
:1038F00010B5014B984710BD6536000010B5014B5F
:10390000984710BD2D36000030B583B00400837990
:1039100082882030064DA84701902368002B03D0F1
:1039200001AA002120009847019803B030BDC0468D
:1039300045370000F0B5DE4657464E46C0B598B054
:103940000500894693469A4624AB1F7825AB1E781E
:1039500001AC58221A4920001A4B9847209BE3607B
:103960005B4623645346E3644B46A376219B636224
:10397000229B23633C23E6540133E754219B002B15
:1039800005D0229B002B02D0012201ABDA7601A9DF
:10399000E8690D4B9847040017AB18702B68002B93
:1039A00003D017AA01212800984701223423EA54A2
:1039B000200018B01CBC91469A46A346F0BDC046F4
:1039C0009C990100875C01001532000070B584B03D
:1039D000040008A8057809A800786E4635700292A0
:1039E000039370706A46E069064B984705002368A8
:1039F000002B03D00022022120009847280004B0A9
:103A000070BDC046F933000070B50400C069064DB2
:103A1000A84705002368002B03D0002203212000C3
:103A20009847280070BDC046E532000010B5C06957
:103A3000014B984710BDC04699310000F8B504000D
:103A4000037A032B24D00026042B1FD0E0682169C1
:103A500062691B4B9847851CAD19E37E002B19D179
:103A6000236C002B24D0206C616CA26C144B984703
:103A700002302D18E36C002B1ED0E06C216D626DBE
:103A80000F4B984702302D182800F8BD0A36DDE7A5
:103A90000C26DBE7606AA16AE26A094FB8470600B4
:103AA000206B616BA26BB84736180436AD19D7E7A7
:103AB000A36C002BD7D1DDE7636D002BDDD1E3E7ED
:103AC000953F0000F0B583B006000F00150001908F
:103AD0001000454B98470400444B9847B84200DD1E
:103AE0007FE0102101A8424B984721000198414BEB
:103AF0009847019B9C46604401902B7A042B45D04B
:103B00003D4901A83D4B9847032101A8384B9847F0
:103B1000A97E01231940EA7E501E8241D2B2134091
:103B20009B0049001943002B0BD03D23EA5C3A3B34
:103B30001340DB003C22A85C3B3A0240520119438F
:103B400011432B6C002B2AD080231943EB6C002BE4
:103B500029D040231943CCB2210001A8244B984717
:103B6000298B01A8264B9847E9682A696B6901A847
:103B7000244FB847EB7E002B19D163B2002B22DB18
:103B8000630627D4019B981B03B0F0BD1E4901A812
:103B90001A4B9847042101A8154B9847B8E7AB6C1E
:103BA000002BD1D1D2E76B6D002BD2D1D3E7696A5C
:103BB000AA6AEB6A01A8134FB847296B6A6BAB6B13
:103BC00001A8B847D9E7296C6A6CAB6C01A80D4F06
:103BD000B847D5E7E96C2A6D6B6D01A8094CA04781
:103BE000D0E702204042CFE73D3A0000393E0000D6
:103BF0009B3E0000B13D0000FC990100D13E000059
:103C0000A73E0000093F0000F499010070B582B0A2
:103C100005000C00019201A80E4B9847F0230340C9
:103C20000020202B01D002B070BD694601980A4BDC
:103C30009847019B1B180193009B012BF3DD01A802
:103C4000044EB0470006C00F287001A8B04720708E
:103C50000120E8E78F3E0000613E000010B582B011
:103C60000400019001290FDD0F211140090101A875
:103C7000074B984700210198064B9847019B9C46AB
:103C80006044001B02B010BD02204042FAE7C0466B
:103C90009B3E0000B13D000010B50C22014B98473F
:103CA00010BDC0465D3C0000F0B585B005000E00BB
:103CB000140001930D9B03930023029303A81C4B54
:103CC00098470300F02210400027302802D0380027
:103CD00005B0F0BD1A07D20F2A705A07920F326052
:103CE000DB07DB0F237002A90398124B98470700EC
:103CF000039B1C180394029B9C466444220003A966
:103D00000A980D4B98470028E1D0039BE31ADED4B4
:103D10003368002B04DD03A8084B9847019B1880EB
:103D2000039BE41A0C9A14600B9A13600127CEE7E8
:103D30008F3E0000613E0000553F00007D3E0000C8
:103D400070B582B005000E001400019301A80C4B61
:103D500098470307DB0F33700006000F2870694691
:103D60000198084B9847019B1B180193009B012B5E
:103D700004DD01A8044B98472080012002B070BDEB
:103D80008F3E0000613E00007D3E000030B50029FE
:103D90000ADD064B1B685D182C001A78027001338F
:103DA000A342FAD1014B1D60080030BD000E002077
:103DB000F0B583B000257F2680277F420195CA1782
:103DC000540E0B1933401B1BDBB232405118C91182
:103DD000002903DD3B4343550135EFE74355019887
:103DE000013003B0F0BDF0B5CE46474680B583B094
:103DF00080460F0000230B60012401266B46DD1D69
:103E00007F23994601212800C04701280ED12B7835
:103E10004A461A40724339688C4662443A60F60159
:103E20005BB2002B02DA0134052CEBD1200003B089
:103E30000CBC90469946F0BD0300421C02307F2A1C
:103E400007DD0549D81C8A4203DD0449581D8A4212
:103E500000DD7047181DFCE7FF3F0000FEFF1F005C
:103E600010B5034B18600348034B984710BDC0467C
:103E7000000E00208D3D0000E73D000001000268BB
:103E800013781B025078181802320A60704702003B
:103E9000036818780133136070470368197003686A
:103EA00001330360704730B5CA17FF231C0014406C
:103EB0006418241205682C700468651C0560120ED5
:103EC00089180B409B1A637003680133036030BD8F
:103ED00070B504000E000800084B9847050001006B
:103EE0002000074B98472A0031002068054B98476F
:103EF00023689C466544256070BDC046B1620100E0
:103F0000A73E0000875C010030B585B00500019137
:103F10000393141E06DC0199002910D00A4B984720
:103F200005B030BD1100094B98472200039928685D
:103F3000074B98472B689C4664442C60F0E70021AF
:103F4000024B9847ECE7C046D13E0000A73E000078
:103F5000875C010070B505000C0016000B68D31AD1
:103F6000012B12DD08000A4B98476860226811187F
:103F700000238E4205D3AA6023689C4660442060DB
:103F8000012300222A60180070BD0023F9E7C04613
:103F90007D3E000000B585B00291002803D0034BA0
:103FA000984705B000BD0298FBE7C046B16201002A
:103FB00070B50D000668002E0BD030000B4B9847F3
:103FC00004002800094B98470023844204D01800BD
:103FD00070BD86684468F4E7220029003000044B75
:103FE000984743424341DBB2F1E7C046B16201006A
:103FF000BF62010010B584B00400080011001A006F
:10400000054B98470230069B9C466044002C00DD1F
:10401000023004B010BDC046953F0000F0B5DE464A
:1040200057464E46C0B584B007008B4692461E00E8
:104030000CAB1B7899460DAB1C880390129B009328
:104040000E990F9A109B30001F4DA84705001F4B7B
:104050009847584534DC012253461340DB000321C6
:10406000314048003021194301434B4613409143EE
:10407000194303A8164B984729000398154B9847F6
:10408000039B9C46604403900E990F9A109B03A8D3
:10409000114DA847002E03DD210003A80F4B9847C0
:1040A000129A119903980E4B9847039B129A9446C3
:1040B0006344D81B04B01CBC91469A46A346F0BD8D
:1040C00002204042F6E7C046F53F0000393E0000BE
:1040D0009B3E0000B13D0000093F0000A73E0000EC
:1040E000875C010030B583B0040006A80588019400
:1040F00003291EDD0F21114001200340DB000901CF
:10410000063A5042424152001943114301A80A4B5A
:10411000984702210198094B9847019B9C466044AF
:104120000190290001A8064B9847019B181B03B07A
:1041300030BD02204042FAE79B3E0000B13D000046
:10414000A73E0000F0B5C64600B5071E12DD0C0004
:1041500002260025084B984620686168A268C0477F
:104160000330361801350C34AF42F5D1300004BCB1
:104170009046F0BD0226F9E7953F0000F0B5D6461F
:104180004F464646C0B584B082460E0015000193E6
:104190000C9F03900D9938001F4B984704001F4B4C
:1041A0009847B04234DC01212940CA0080211143E4
:1041B0000223194303A81A4B984721000398194B6F
:1041C0009847039A944660440390019903A8164BBC
:1041D0009847002F13DD0D9C0E9E0025134B99462A
:1041E0000F4B984621686268A36803A8C84702CEAF
:1041F000C9B203A8C04701350C34AF42F2D1039BCA
:104200005246981A04B01CBC90469946A246F0BD8E
:1042100002204042F6E7C04645410000393E00001A
:104220009B3E0000B13D0000A73E0000093F00009A
:10423000F0B5CE46474680B583B004000E001500A9
:104240001F000A9B019301A81E4B9847F0230340CF
:104250000020902B04D003B00CBC90469946F0BDD2
:1042600069460198184B9847019B1B180193009AC7
:10427000012AF0DD9846904401A8144B984720800D
:1042800000232B60019B984516D9002E16DB0023D6
:104290000C4A91465A1C2A609B00FC1801A8C8478A
:1042A0002060019B984505D92B68B342F2DD0120BF
:1042B0004042D0E70120CEE70120CCE70120404278
:1042C000C9E7C0468F3E0000613E00007D3E000011
:1042D00000487047040E002070B51500074C2060A0
:1042E00061600834402200212000054B984740229D
:1042F00029002000034B984770BDC046040E0020E3
:10430000BD5C0100E162010070B50C0001000848CD
:10431000084DA84721680848A84761680748A8478A
:10432000210008310648A8470648074B984770BD4A
:104330000C9A01001D5E01001C9A01003C9A0100CC
:104340005C9A0100F8B70100395F010030B583B015
:104350000C00150001000848084B984710230093F3
:104360000F3B012229002000054CA0470548064BC1
:10437000984703B030BDC046049A01001D5E01009D
:1043800085A20000F8B70100395F010030B583B0A5
:1043900001AC00232370A3700233637021000B2053
:1043A000044DA84721002A20A84721002B20A84718
:1043B00003B030BD850E010010B50A4B1B6A5B05CA
:1043C0000AD4094B1B6A1B0505D50620074B9847E5
:1043D0000748084B984710BD03210120064B98471A
:1043E000FEE7C0468028004000280040C9AE00001B
:1043F0007C9A0100395F0100A586000010B501001C
:1044000003781A00303A092A20D813001B014A7891
:1044100010003038092826D8C3181B018A781000EC
:10442000303809282ED8C3181B01CA78110030393A
:10443000092936D911004139052934D90020110044
:10444000613905292ED8573AD0182BE01A00413A85
:10445000052A01D8373BD9E700201A00613A052A1E
:1044600020D8573BD2E710004138052802D8373A08
:10447000D318D2E700201400613C052C12D8573A1B
:10448000D318CAE710004138052802D8373AD318A4
:10449000CAE700201400613C052C03D8573AD31812
:1044A000C2E7C81810BD373AD018FBE7F8B5DE46AA
:1044B00057464E464546E0B507004C1C0B78222B6C
:1044C00002D12500002109E0664B19600024B3E009
:1044D0005C3B5A425341EB185D1C013108002B78BC
:1044E000222B04D0002B02D04A1CF1D10020013035
:1044F0005D4B1B689847061E00D1A4E005005B4B8E
:104500009A465B4B9B46022398460FE0621C6178FB
:104510000B00623BD8B2132800D980E083005548D5
:10452000C3589F4608232B700135541C2378222B37
:1045300078D0002B76D05C2BE8D001342B7001357D
:10454000F4E70C232B700135EFE70A232B700135BC
:10455000EBE70D232B700135E7E709232B700135BD
:10456000E3E7A01C444B98478146621D434B4B44F4
:104570005345DAD90028D8D0414B4B4453451AD87B
:10458000A3795C2BD1D1E379752BCED120000830F3
:10459000394B984722000B32384BC3185345C4D8C7
:1045A0004B469B0237490B408005800D1843802302
:1045B0005B02994681444B467F2B46D9D9454CD95D
:1045C000314B994545D9E91C3F204B461840802383
:1045D0005B420343EB704B469B099946042304243A
:1045E0004D1E3F2049460840802149420143297021
:1045F000494689098946013D3F20494608408021B6
:10460000494201432970494689098946681E1F4964
:10461000095D4C4621430170013BED1885E7297087
:10462000013582E700232B702378223B5A42534105
:10463000E4183E610423FB6020003CBC9046994690
:10464000A246AB46F8BD0024F6E70135012301245C
:10465000DCE7E91C03230324C2E702354346444652
:10466000C9E7C0464C0E002028010020FF030000CF
:10467000FF0700008C9A0100FD4300000024FFFFAB
:104680000028FFFF00FC0F00FFFF0000DC9A010084
:1046900000280AD00378013B1F2B06D801300028E0
:1046A00003D00378013B1F2BF8D9704710B5064B98
:1046B0001B6828209847041E03D028220021034BA2
:1046C0009847200010BDC04628010020BD5C0100B5
:1046D000F0B5DE4657464E464546E0B587B0050084
:1046E0000C1E00D183E00422C8492000C84B984723
:1046F000002879D00522C7492000C54B98470028DB
:1047000000D17CE00422C4492000C14B9847002816
:1047100000D178E02378222B00D179E02D2B00D135
:104720007CE01A00303A092A00D87DE05B2B00D1EA
:1047300036E17B2B00D09FE1753BEB60601CB74BF3
:104740009847040003787D2B00D183E1B44B984750
:10475000061EA86000D197E12000B04CA0470100E0
:104760003000B04B9847A047041E40D033693362F5
:104770000023336103783A2B00D06DE10130A74C60
:10478000A04701003000FFF7A3FFA047041E2ED072
:10479000A34B9846A14FA34B994623782C2B00D0CE
:1047A00062E1C047051E00D170E130604660601CC8
:1047B000B84701002800C847B847041E17D02B6926
:1047C0002B6200232B6103783A2B00D048E10130A3
:1047D000924CA04701002800FFF77AFFA047040091
:1047E0002E000028D9D102E00223EB60043420001F
:1047F00007B03CBC90469946A246AB46F0BD0023AC
:10480000EB600534F3E70123EB606B610434EEE702
:1048100021002800834B98470400E8E70134002278
:10482000814B0492059303E00022804B0492059390
:104830002378303B5942594164182378313B082B87
:1048400069D8002200237A498B467A498A467A4FF2
:1048500010001900A94626000022784BD847009086
:104860000191741C30783038D047009A019BB847CA
:1048700026002378303B092BEED9009001914D465C
:1048800023782E2B4CD0002200230292039323780E
:1048900020229343452B00D07DE063782B2B6CD0F6
:1048A0002D2B6DD00134012723781A00303A092AC4
:1048B00074D8002632009600B61876000134303BDA
:1048C0009A192378190030390929F4D91600584B60
:1048D0009A46009A019B04980599D047009001914F
:1048E00077433800534B9847029A039B524EB04788
:1048F00002000B0000205149514EB04702000B004E
:1049000000980199D047A861E9614E4B98476861CA
:104910000323EB606BE70022002300920193AFE7D3
:104920006378303B092B2FD8661C002300240293A8
:1049300003943F4B99463F4B9A463F4F424B984614
:1049400000223E4B00980199C84700900191741CC9
:1049500030783038D047009A019BB84700900191D9
:104960000022324B02980399C0470290039126001F
:104970002378303B092BE3D989E70234012793E7F9
:10498000023401277F428FE7002200230292039323
:10499000012700269BE70127002698E7002696E7D7
:1049A000563BEB60601C1D4B9847040003785D2B61
:1049B00026D01B4B9847061EA86061D02000174CDC
:1049C000A04701003000FFF783FEA047041E00D17E
:1049D0000DE7134B9846114F23782C2B12D1C0476B
:1049E000051E4FD030604660601CB84701002800AB
:1049F000FFF76EFEB84704002E000028ECD1F6E663
:104A00000134F4E65D2B21D10134F0E6E49A010093
:104A1000BF620100EC9A0100F49A01009146000087
:104A2000AD460000AD4400000000F0BF0000F03FC4
:104A3000E94A0100BD560100613C0100000024402C
:104A40005526010055560100E94F0100104B1C602E
:104A50000024CCE60134CAE60D4B18600024C6E6FB
:104A60000B4B18600024C2E67D2B01D10134BEE659
:104A7000074B1C600024BAE6054B1C600024B6E618
:104A80000024B4E60024B2E60024B0E60024AEE63A
:104A90004C0E002070B50600074B9847441C074B8E
:104AA0001B6820009847051E03D022003100044BEC
:104AB0009847280070BDC046B1620100280100205F
:104AC000875C0100F0B5D6464F464646C0B50400A7
:104AD0000D00002807D0002945D0254B9A46032316
:104AE0009846D1460DE00800451EA84132E0203628
:104AF00037000FE0974218D12378002B35D00134CE
:104B000001352678D0478019437842461340370054
:104B1000012BECD02E78C8478019437842461340C9
:104B20003200012BE6D12032E4E72678104B98477B
:104B300080194278032313403400012B0FD02D78C5
:104B40000B4B984740194278032313402800012B50
:104B500007D0201A1CBC90469946A246F0BD2034CE
:104B6000EDE72030F5E70120F4E70020F2E7C0464A
:104B7000295B0100014B18687047C0464C0E0020AD
:104B8000F0B5C64600B5041E24D0144B98461F004D
:104B90001E0004E02000336898472C1E1AD02568B8
:104BA000E368DB050DD4A068002804D0FFF7E8FF18
:104BB000E368DB0505D42069002802D043461B6862
:104BC0009847E3689B05E5D4206A0028E2D03B685B
:104BD0009847DFE704BC9046F0BDC04624010020A2
:104BE000F8B504000E001700144B9847050000228A
:104BF000134B1A60002813D02000124B9847010075
:104C00002800114B9847041E0CD0002F05D00D4BE7
:104C1000984704000378002B09D1002E00D034609F
:104C20002800F8BD2800094B98470025F8E7280020
:104C3000064B9847024B1C600025F1E7AD4600008B
:104C40004C0E002091460000D1460000814B000030
:104C500010B500220021014B984710BDE14B000028
:104C600070B50D008468002C08D0054E2900206A1C
:104C7000B047002802D02468002CF7D1200070BD76
:104C8000C54A0000836800290ED0002B04D01A68A2
:104C9000002A04D11A0005E0816005E01A001368BB
:104CA000002BFBD111604A607047000070B5050011
:104CB0000E00141E0DD0106A002802D0054B1B6890
:104CC00098473000044B9847206221002800034B8E
:104CD000984770BD24010020954A0000854C0000D3
:104CE000D0B506000F00074B9847041E08D00323D9
:104CF000C3608661C76130003900034B984760612B
:104D00002000D0BDAD4600005556010070B505002D
:104D1000054B9847041E05D00423C3602800034BAD
:104D200098472061200070BDAD460000954A000004
:104D300010B5034B9847002801D00523C36010BD70
:104D4000AD46000010B5034B9847002801D006235C
:104D5000C36010BDAD46000010B5024B984700205F
:104D600010BDC0467D03000010B5024B984740B20D
:104D700010BDC0463104000010B5024B984740B248
:104D800010BDC0469D04000010B5024B984700209E
:104D900010BDC0465104000010B5024B98470020DA
:104DA00010BDC0467504000010B504000A49180083
:104DB0000A4B9847002808D0094B0A4A0A4928316B
:104DC00020000A4CA047002010BD054B054A0649AB
:104DD0002000064CA047F6E7609B01008D620100B1
:104DE000E41C0020C01B0020FC9A0100416101006E
:104DF00010B504000420034B98470470002343704F
:104E000010BDC0461D5C010010B5040000680028FC
:104E100001D0024B98470023236010BD315C010094
:104E200070B50B78012B37D0002B2BD0022B06D07E
:104E3000032B1FD001235B424B80F22019E0142684
:104E40001A4D01235B424B802B7883420BD02A1DE5
:104E500000230133DBB2B3421CD215000432141F0D
:104E600024788442F5D16B884B80114A002093420C
:104E70000ED070BD4B78282B11D0682B12D016267F
:104E80000C4DDEE701235B424B800E260A4DDBE72B
:104E9000F230EEE7F220ECE71326084DD1E71626B4
:104EA000074DCEE71626074DCBE7C046349C0100E0
:104EB000FFFF0000849C0100FC9B0100B09B0100EF
:104EC000DC9C0100349D0100F0B5D6464F464646B5
:104ED000C0B59446002821D08946884680440023E6
:104EE000134816E06D00EDB2013E002E0CD0DF0B32
:104EF0005B009BB22C000C40621E9441E4B2BC42A9
:104F0000F0D043409BB2EDE701229246D144C14527
:104F100005D04A46117808260125E8E700236246B5
:104F200013701B0A53701CBC90469946A246F0BDF4
:104F30000580FFFF10B5411C40780238C0B20A1846
:104F4000014B984710BDC046C94E000010B528233C
:104F50008B702C334B7004223633CA520800024B3C
:104F60009847002010BDC046354F000010B51C23E7
:104F70008B70002A09D107234B7004228A23CA525E
:104F80000800034B9847002010BD0B334B70F4E72B
:104F9000354F000010B543238B7047224A704332CF
:104FA0008B520800014B9847002010BD354F000080
:104FB00010B515238B70CB78032B0BD0002A0CD1A6
:104FC00007234B7004228A23CA520800044B9847D7
:104FD000002010BD24334B70F4E70B234B70F1E736
:104FE000354F000010B540238B70CB78DB0609D419
:104FF00007234B704B228333CA520800044B984757
:10500000002010BD0A234B7004228033CA52F4E7FB
:10501000354F000010B511238B700A3B4B702322D3
:105020008333CA520800024B9847002010BDC04687
:10503000354F000010B530238B70293B4B708A220E
:105040008B520800014B9847002010BD354F0000DF
:1050500010B517238B70103B4B7004228333CA5258
:105060000800024B9847002010BDC046354F000095
:1050700010B508238B70CB78DB0709D507234B705D
:1050800023228A23CA520800034B9847002010BDF0
:1050900027234B70F4E7C046354F000010B5CA789F
:1050A0000323134016208870012B03D9E220032B21
:1050B0000AD010BD1B234B7023226F33CA52080045
:1050C000074B98470020F4E7930605D547234B701C
:1050D00004228A23CA52F2E727234B70F8E7C0461E
:1050E000354F000010B501238B7006334B7004223E
:1050F0008333CA520800024B9847002010BDC046B7
:10510000354F000010B546238B7005334B700422D9
:105110003F33CA520800024B9847002010BDC046DA
:10512000354F000010B51B238B70143B4B702322AE
:105130008333CA520800024B9847002010BDC04676
:10514000354F000010B502238B7005334B70CB78C0
:105150007F2B07D807228A23CA520800034B98479F
:10516000002010BD23228A23CA52F6E7354F0000E3
:1051700010B547238B70CC78403B23409B00174CE5
:10518000E3589F4604228A23CA52833B4B7008008F
:10519000134B9847002010BD0378002B06D1232223
:1051A0008A33CA528B8807334B70F0E704228A2374
:1051B000CA52F7E723228A23CA528B8807334B70DF
:1051C000E5E766228A23CA52833B4B70DFE704205F
:1051D0008A23C85207324A70D9E7C0466C9B010047
:1051E000354F000010B541238B703A3B4B70432282
:1051F0008333CA520800024B9847002010BDC046B6
:10520000354F000010B520238B70193B4B700422E2
:105210008333CA520800024B9847002010BDC04695
:10522000354F000010B545238B70CA78423B1340C0
:105230009B001748C3589F4647234B7052B2002A21
:1052400003DB04228A23CA5208E023224333CA52D2
:1052500004E087234B7004220333CA5208000D4B2D
:105260009847002010BD87234B7052B2002A03DB01
:1052700004228A23CA52F1E723220333CA52EDE7FC
:105280005A234B7004223033CA52E7E7E220E9E7A1
:105290008C9B0100354F000010B512238B700B3B27
:1052A0004B70CB787F2B0ED80B234B70002A02D08B
:1052B0004B7820334B7004228A23CA520800034BD8
:1052C0009847002010BD27234B70EFE7354F0000B3
:1052D00070B582B005000478023CE4B201AE320041
:1052E00001002000084B984732782B5DE5209A4258
:1052F00001D002B070BD2C1901AB5A7863789A4284
:10530000F7D10020F5E7C046C94E00000138C3B20E
:10531000002002229A4240417047000010B50C0064
:105320000078094B9847F223002801D1180010BDDE
:10533000CE3BA3701D3B63708A22A3522000034B17
:1053400098470023F2E7C0460D530000354F000098
:1053500010B582B00400184B1B680193042201A908
:10536000164B98470023002802D02278042A02D046
:10537000180002B010BD6278072A18D0D3B2072BEC
:1053800009D8032A11D0D623052AF1D0053B012ADA
:10539000EED0E123ECE7112A0BD0D1B2D423FF29C0
:1053A000E6D020330F2AF4D1E2E7D223E0E7D72377
:1053B000DEE7F323DCE7C046AC9B0100695C01003B
:1053C00070B5051E17D008200C4B9847040068786C
:1053D0000B4B9847206028000A4B98476060236871
:1053E000002B03D0002801D0200070BD2000064B08
:1053F00098470024F8E70024F6E7C0461D5C01004A
:10540000F14D000011550000315C010070B5050040
:105410000468002C08D02000054B9847201D054B40
:1054200098472868044B984700232B6070BDC046FE
:10543000094E000089540000315C010010B5036979
:10544000984710BD10B54369984710BD10B58369E2
:10545000984710BD10B5C369984704000120024B5E
:105460009847200010BDC0468D66000010B5036A45
:10547000984704000120024B9847200010BDC04609
:105480008D6600004068704710B504000368002B6B
:1054900006D0596A1878044B98472068034B984700
:1054A0000023236010BDC04601610000315C010093
:1054B00070B504000D004068094B98472B68A36045
:1054C0006B68E360AB682361EB6863612B69A36180
:1054D000AB6923626B69E3612B6A6362002070BD74
:1054E000AD60000010B58AB0040001A9074B9847D1
:1054F000616801A8A3689847002801D00AB010BDD0
:10550000099B6362E36820009847F7E7B154000005
:1055100070B505002820084B984704002B780370CD
:105520004560064B9847002801D1200070BD20003F
:10553000034B98470024F8E71D5C0100E554000088
:10554000315C010010B50248024B9847002010BDA5
:10555000500E00200D54000010B582B00400184B0E
:105560001B68002B01D0174B98472000164B98471B
:10557000134B186000281CD04368002B1BD0036815
:10558000002B1AD062780020032A01D002B010BD8F
:105590000133023A0092123200210C4CA04700283D
:1055A000F4D1074B1B681A68537807218B4353705B
:1055B000ECE7E120EAE7E120E8E7E120E6E7C046A2
:1055C000500E002045550000C1530000415A000014
:1055D00010B5044B1B68E120002B02D05868024B29
:1055E000984710BD500E00204D54000010B5044BDC
:1055F0001B68E120002B02D05868024B984710BD71
:10560000500E00205554000010B5044B1B68E120DB
:10561000002B02D05868024B984710BD500E002056
:105620006D54000010B5014B984710BDED550000BA
:1056300010B5029C002C08D00324204007D002287B
:105640000DD0012803D0E22012E0E22010E0D200C9
:10565000072003401A43029B1A80002008E0C9007B
:10566000072003400B4312021A43029B1A800020BA
:1056700010BD0000002A3ED0204B1B685B685B68B1
:105680005B78002B13D1012809D0002803D0022811
:1056900009D0E22030E05823136000202CE04023A2
:1056A0001360002028E020231360002024E001285C
:1056B00009D0002803D0022809D0E2201CE0802372
:1056C0001360002018E040231360002014E0072935
:1056D00008D908290AD0E2200F290DD848231360E1
:1056E000002009E024231360002005E0D0235B00A4
:1056F0001360002000E0E2207047C046500E0020FA
:10570000F8B506001C4B1B681D685F68807829008F
:105710001A4B9847041E01D02000F8BD184B98473B
:10572000041E02D0174B9847F6E772783100380014
:10573000154B9847041EF5D16888144B9847B51D42
:1057400032008A3229003800114B9847041EE9D1F3
:105750008A23F45A032C04D860426041E6300400E6
:10576000E0E728000B4B9847041EDBD128000A4BCA
:1057700098470400D6E7C046500E0020214E000096
:10578000D1550000255600003D5400008D660000F4
:1057900045540000D15200005153000070B5A4B030
:1057A00014001D00144B1B681E6801ABD870998053
:1057B000002A05D0032221000A2068440F4B984795
:1057C00001A930000E4B9847041E02D0200024B0DF
:1057D00070BD01A80B4B9847041EF7D1002DF5D0E2
:1057E00001AB9A79042AF1D9033A0B2169442800C4
:1057F000024B9847EAE7C046500E0020875C010044
:10580000E54F00000157000010B50B000022010019
:105810000420014CA04710BD9D57000030B5A5B035
:105820001500114B1B681A6801ABD87099801900DC
:1058300010000E4B9847041E02D0200025B030BD4A
:1058400001A80B4B9847041EF7D1002DF5D08A23F1
:1058500001AAD35A062BF0D904220B21694428004F
:10586000044B9847E9E7C046500E00203550000031
:1058700001570000875C010010B50200E220002AF9
:1058800003D000210020014B984710BD1D58000097
:10589000F0B5A5B007000E000B4B1B681D6801ACEE
:1058A0008C2200212000094B9847E770A680210038
:1058B0002800074B9847002801D025B0F0BD01A86B
:1058C000044B9847F9E7C046500E0020BD5C01002C
:1058D000515000000157000010B500218020014BFD
:1058E000984710BD9158000010B500218120014B50
:1058F000984710BD91580000F0B5A9B003902EA8AC
:1059000080C80578002F0AD0214800680668042D59
:1059100016D0E224202D04D0200029B0F0BDE224CE
:10592000FAE70A2002ACA446604400900398194CA0
:10593000A047041EF0D18023039A1A43039209E082
:105940000A2002ACA446604400900398114CA04782
:10595000041EE1D105A96B461B7BCB700A2302AA6A
:10596000944663441B888B8030000B4B9847041E81
:10597000D2D105A8094B9847041ECDD12A00132186
:1059800002AB9C4661443800054B9847C4E7C046CB
:10599000500E002031560000455100000157000014
:1059A000875C010070B58AB00500E22400280BD0A6
:1059B0002023019302AB009300230022002100204A
:1059C000084CA047041E02D020000AB070BD04227B
:1059D00002A92800044EB047281D052204A9B0479B
:1059E000F2E7C046F9580000875C010070B584B04A
:1059F00005000C00E220002917D00423019303AB1B
:105A0000009305230222002100200C4EB0470028FD
:105A10000BD1002D03D0012D09D0E22005E003AB0E
:105A2000DB78553B5A1E9341237004B070BD03AB25
:105A30009B78553B5A1E93412370F6E7F9580000B6
:105A4000F0B5DE4657464E464546E0B591B00500F6
:105A500002911700039300230F93E224022807D931
:105A6000200011B03CBC90469946A246AB46F0BD22
:105A700002281FD000241A9B002BF1D0E234039B94
:105A8000002BEDD00FAA029928002E4B9847041E38
:105A9000E6D11A9BDB19E2340F9A9342E0D87B09D6
:105AA000984620239A4600230026A9461D00059704
:105AB00057461EE00F29D3D8DCE743465B010F9A17
:105AC000D31A1F2B17D8059B9B199B0807251D4030
:105AD0001C3F10E0039B981907AB9C4661442200D1
